{
  "contractName": "StoreTripleData",
  "abi": [
    {
      "constant": false,
      "inputs": [
        {
          "name": "_triple",
          "type": "bytes32"
        },
        {
          "name": "_digest",
          "type": "string"
        }
      ],
      "name": "insertIPFS",
      "outputs": [],
      "payable": false,
      "stateMutability": "nonpayable",
      "type": "function",
      "signature": "0x94450d48"
    },
    {
      "constant": false,
      "inputs": [
        {
          "name": "_triple",
          "type": "bytes32"
        },
        {
          "name": "receiver",
          "type": "address"
        }
      ],
      "name": "buyData",
      "outputs": [],
      "payable": true,
      "stateMutability": "payable",
      "type": "function",
      "signature": "0xeedbedc2"
    },
    {
      "constant": true,
      "inputs": [
        {
          "name": "_triple",
          "type": "bytes32"
        }
      ],
      "name": "fetchIPFS",
      "outputs": [
        {
          "name": "ipfsHash",
          "type": "string"
        }
      ],
      "payable": false,
      "stateMutability": "view",
      "type": "function",
      "signature": "0x6c0602de"
    }
  ],
  "bytecode": "0x608060405234801561001057600080fd5b5061041a806100206000396000f3fe6080604052600436106100565763ffffffff7c01000000000000000000000000000000000000000000000000000000006000350416636c0602de811461005b57806394450d48146100fa578063eedbedc2146101b6575b600080fd5b34801561006757600080fd5b506100856004803603602081101561007e57600080fd5b50356101ef565b6040805160208082528351818301528351919283929083019185019080838360005b838110156100bf5781810151838201526020016100a7565b50505050905090810190601f1680156100ec5780820380516001836020036101000a031916815260200191505b509250505060405180910390f35b34801561010657600080fd5b506101b46004803603604081101561011d57600080fd5b8135919081019060408101602082013564010000000081111561013f57600080fd5b82018360208201111561015157600080fd5b8035906020019184600183028401116401000000008311171561017357600080fd5b91908080601f016020809104026020016040519081016040528093929190818152602001838380828437600092019190915250929550610297945050505050565b005b6101b4600480360360408110156101cc57600080fd5b508035906020013573ffffffffffffffffffffffffffffffffffffffff166102e7565b60008181526020818152604091829020600180820180548551600293821615610100026000190190911692909204601f810185900485028301850190955284825260609492939192909183018282801561028a5780601f1061025f5761010080835404028352916020019161028a565b820191906000526020600020905b81548152906001019060200180831161026d57829003601f168201915b5050505050915050919050565b61029f61033b565b50604080518082018252838152602080820184815260008681528083529390932082518155925180519293849390926102df926001850192910190610353565b505050505050565b600034116102f457600080fd5b60405173ffffffffffffffffffffffffffffffffffffffff8216903480156108fc02916000818181858888f19350505050158015610336573d6000803e3d6000fd5b505050565b60408051808201909152600081526060602082015290565b828054600181600116156101000203166002900490600052602060002090601f016020900481019282601f1061039457805160ff19168380011785556103c1565b828001600101855582156103c1579182015b828111156103c15782518255916020019190600101906103a6565b506103cd9291506103d1565b5090565b6103eb91905b808211156103cd57600081556001016103d7565b9056fea165627a7a723058208904d649eba9824e039c195a810b6972c672c71f2f9ff4ff7bbf88d624e3ea190029",
  "source": "pragma solidity >=0.4.22 <0.6.0;\n\ncontract StoreTripleData {\n\n    struct Triple {\n        bytes32 triple;\n        string ipfsHash;\n    }\n\n    mapping (bytes32 => Triple) private entries;\n\n\n\n  /**\n   * @dev associate a multihash entry with the sender address\n   * @param _digest hash digest produced by hashing content using hash function\n   */\n\n  function insertIPFS(bytes32 _triple, string memory _digest) public {\n\n    Triple memory data = Triple({\n        triple: _triple,\n        ipfsHash: _digest\n    });\n\n    entries[_triple] = data;\n  }\n\n  /**\n   * @dev retrieve multihash entry associated with an ipfs hash digest\n   * @param _triple address used as key\n   */\n\n    function buyData(bytes32 _triple, address payable receiver) payable public{\n        require(msg.value > 0);\n        receiver.transfer(msg.value);\n    }\n\n    function fetchIPFS(bytes32 _triple) external view returns (string memory ipfsHash) {\n        Triple storage ipfs = entries[_triple];\n        return ipfs.ipfsHash;\n    }\n\n\n}\n",
  "sourcePath": "/Users/hingudarshan/IdeaProjects/blockservice/contracts/StoreTripleData.sol",
  "compiler": {
    "name": "solc",
    "version": "0.5.0+commit.1d4f565a.Emscripten.clang"
  },
  "schemaVersion": "3.0.1",
  "updatedAt": "2019-05-08T19:36:19.793Z",
  "devdoc": {
    "methods": {
      "buyData(bytes32,address)": {
        "details": "retrieve multihash entry associated with an ipfs hash digest",
        "params": {
          "_triple": "address used as key"
        }
      },
      "insertIPFS(bytes32,string)": {
        "details": "associate a multihash entry with the sender address",
        "params": {
          "_digest": "hash digest produced by hashing content using hash function"
        }
      }
    }
  },
  "userdoc": {
    "methods": {}
  }
}