{
  "contractName": "User",
  "abi": [
    {
      "constant": false,
      "inputs": [
        {
          "name": "_digest",
          "type": "string"
        }
      ],
      "name": "setEntry",
      "outputs": [],
      "payable": false,
      "stateMutability": "nonpayable",
      "type": "function",
      "signature": "0x4b369820"
    }
  ],
  "bytecode": "0x608060405234801561001057600080fd5b50610268806100206000396000f3fe6080604052600436106100405763ffffffff7c01000000000000000000000000000000000000000000000000000000006000350416634b3698208114610045575b600080fd5b34801561005157600080fd5b506100f86004803603602081101561006857600080fd5b81019060208101813564010000000081111561008357600080fd5b82018360208201111561009557600080fd5b803590602001918460018302840111640100000000831117156100b757600080fd5b91908080601f0160208091040260200160405190810160405280939291908181526020018383808284376000920191909152509295506100fa945050505050565b005b61010261018f565b602060405190810160405280838152509050806000836040518082805190602001908083835b602083106101475780518252601f199092019160209182019101610128565b51815160209384036101000a6000190180199092169116179052920194855250604051938490038101909320845180519194610188945085935001906101a1565b5050505050565b60408051602081019091526060815290565b828054600181600116156101000203166002900490600052602060002090601f016020900481019282601f106101e257805160ff191683800117855561020f565b8280016001018555821561020f579182015b8281111561020f5782518255916020019190600101906101f4565b5061021b92915061021f565b5090565b61023991905b8082111561021b5760008155600101610225565b9056fea165627a7a723058208b8a5389a84f0c5025d4a02bfcf354a38746198bea08cd9f02ca455274a3800d0029",
  "source": "pragma solidity >=0.4.22 <0.6.0;\n\ncontract User {\n\n    struct Triple {\n        string ipfsHash;\n    }\n\n  mapping (string => Triple) private entries;\n\n  /**\n   * @dev associate a multihash entry with the sender address\n   * @param _digest hash digest produced by hashing content using hash function\n   */\n\n  function setEntry(string memory _digest) public {\n\n    Triple memory data = Triple({\n        ipfsHash: _digest\n    });\n\n    entries[_digest] = data;\n  }\n}\n",
  "sourcePath": "/Users/hingudarshan/IdeaProjects/blockservice/contracts/User.sol",
  "compiler": {
    "name": "solc",
    "version": "0.5.0+commit.1d4f565a.Emscripten.clang"
  },
  "schemaVersion": "3.0.1",
  "updatedAt": "2019-04-03T10:49:05.573Z",
  "devdoc": {
    "methods": {
      "setEntry(string)": {
        "details": "associate a multihash entry with the sender address",
        "params": {
          "_digest": "hash digest produced by hashing content using hash function"
        }
      }
    }
  },
  "userdoc": {
    "methods": {}
  }
}